{
  "address": "0x6feb2EF9631649fE6e8B676D6c606410f2e1dbb7",
  "abi": [
    {
      "inputs": [
        {
          "internalType": "uint256",
          "name": "deadline",
          "type": "uint256"
        }
      ],
      "name": "AllowanceExpired",
      "type": "error"
    },
    {
      "inputs": [],
      "name": "ExcessiveInvalidation",
      "type": "error"
    },
    {
      "inputs": [
        {
          "internalType": "uint256",
          "name": "amount",
          "type": "uint256"
        }
      ],
      "name": "InsufficientAllowance",
      "type": "error"
    },
    {
      "inputs": [
        {
          "internalType": "uint256",
          "name": "maxAmount",
          "type": "uint256"
        }
      ],
      "name": "InvalidAmount",
      "type": "error"
    },
    {
      "inputs": [],
      "name": "InvalidContractSignature",
      "type": "error"
    },
    {
      "inputs": [],
      "name": "InvalidNonce",
      "type": "error"
    },
    {
      "inputs": [],
      "name": "InvalidSignature",
      "type": "error"
    },
    {
      "inputs": [],
      "name": "InvalidSignatureLength",
      "type": "error"
    },
    {
      "inputs": [],
      "name": "InvalidSigner",
      "type": "error"
    },
    {
      "inputs": [],
      "name": "LengthMismatch",
      "type": "error"
    },
    {
      "inputs": [
        {
          "internalType": "uint256",
          "name": "signatureDeadline",
          "type": "uint256"
        }
      ],
      "name": "SignatureExpired",
      "type": "error"
    },
    {
      "anonymous": false,
      "inputs": [
        {
          "indexed": true,
          "internalType": "address",
          "name": "owner",
          "type": "address"
        },
        {
          "indexed": true,
          "internalType": "address",
          "name": "token",
          "type": "address"
        },
        {
          "indexed": true,
          "internalType": "address",
          "name": "spender",
          "type": "address"
        },
        {
          "indexed": false,
          "internalType": "uint160",
          "name": "amount",
          "type": "uint160"
        },
        {
          "indexed": false,
          "internalType": "uint48",
          "name": "expiration",
          "type": "uint48"
        }
      ],
      "name": "Approval",
      "type": "event"
    },
    {
      "anonymous": false,
      "inputs": [
        {
          "indexed": true,
          "internalType": "address",
          "name": "owner",
          "type": "address"
        },
        {
          "indexed": false,
          "internalType": "address",
          "name": "token",
          "type": "address"
        },
        {
          "indexed": false,
          "internalType": "address",
          "name": "spender",
          "type": "address"
        }
      ],
      "name": "Lockdown",
      "type": "event"
    },
    {
      "anonymous": false,
      "inputs": [
        {
          "indexed": true,
          "internalType": "address",
          "name": "owner",
          "type": "address"
        },
        {
          "indexed": true,
          "internalType": "address",
          "name": "token",
          "type": "address"
        },
        {
          "indexed": true,
          "internalType": "address",
          "name": "spender",
          "type": "address"
        },
        {
          "indexed": false,
          "internalType": "uint48",
          "name": "newNonce",
          "type": "uint48"
        },
        {
          "indexed": false,
          "internalType": "uint48",
          "name": "oldNonce",
          "type": "uint48"
        }
      ],
      "name": "NonceInvalidation",
      "type": "event"
    },
    {
      "anonymous": false,
      "inputs": [
        {
          "indexed": true,
          "internalType": "address",
          "name": "owner",
          "type": "address"
        },
        {
          "indexed": true,
          "internalType": "address",
          "name": "token",
          "type": "address"
        },
        {
          "indexed": true,
          "internalType": "address",
          "name": "spender",
          "type": "address"
        },
        {
          "indexed": false,
          "internalType": "uint160",
          "name": "amount",
          "type": "uint160"
        },
        {
          "indexed": false,
          "internalType": "uint48",
          "name": "expiration",
          "type": "uint48"
        },
        {
          "indexed": false,
          "internalType": "uint48",
          "name": "nonce",
          "type": "uint48"
        }
      ],
      "name": "Permit",
      "type": "event"
    },
    {
      "anonymous": false,
      "inputs": [
        {
          "indexed": true,
          "internalType": "address",
          "name": "owner",
          "type": "address"
        },
        {
          "indexed": false,
          "internalType": "uint256",
          "name": "word",
          "type": "uint256"
        },
        {
          "indexed": false,
          "internalType": "uint256",
          "name": "mask",
          "type": "uint256"
        }
      ],
      "name": "UnorderedNonceInvalidation",
      "type": "event"
    },
    {
      "inputs": [],
      "name": "DOMAIN_SEPARATOR",
      "outputs": [
        {
          "internalType": "bytes32",
          "name": "",
          "type": "bytes32"
        }
      ],
      "stateMutability": "view",
      "type": "function"
    },
    {
      "inputs": [
        {
          "internalType": "address",
          "name": "",
          "type": "address"
        },
        {
          "internalType": "address",
          "name": "",
          "type": "address"
        },
        {
          "internalType": "address",
          "name": "",
          "type": "address"
        }
      ],
      "name": "allowance",
      "outputs": [
        {
          "internalType": "uint160",
          "name": "amount",
          "type": "uint160"
        },
        {
          "internalType": "uint48",
          "name": "expiration",
          "type": "uint48"
        },
        {
          "internalType": "uint48",
          "name": "nonce",
          "type": "uint48"
        }
      ],
      "stateMutability": "view",
      "type": "function"
    },
    {
      "inputs": [
        {
          "internalType": "address",
          "name": "token",
          "type": "address"
        },
        {
          "internalType": "address",
          "name": "spender",
          "type": "address"
        },
        {
          "internalType": "uint160",
          "name": "amount",
          "type": "uint160"
        },
        {
          "internalType": "uint48",
          "name": "expiration",
          "type": "uint48"
        }
      ],
      "name": "approve",
      "outputs": [],
      "stateMutability": "nonpayable",
      "type": "function"
    },
    {
      "inputs": [
        {
          "internalType": "address",
          "name": "token",
          "type": "address"
        },
        {
          "internalType": "address",
          "name": "spender",
          "type": "address"
        },
        {
          "internalType": "uint48",
          "name": "newNonce",
          "type": "uint48"
        }
      ],
      "name": "invalidateNonces",
      "outputs": [],
      "stateMutability": "nonpayable",
      "type": "function"
    },
    {
      "inputs": [
        {
          "internalType": "uint256",
          "name": "wordPos",
          "type": "uint256"
        },
        {
          "internalType": "uint256",
          "name": "mask",
          "type": "uint256"
        }
      ],
      "name": "invalidateUnorderedNonces",
      "outputs": [],
      "stateMutability": "nonpayable",
      "type": "function"
    },
    {
      "inputs": [
        {
          "components": [
            {
              "internalType": "address",
              "name": "token",
              "type": "address"
            },
            {
              "internalType": "address",
              "name": "spender",
              "type": "address"
            }
          ],
          "internalType": "struct IAllowanceTransfer.TokenSpenderPair[]",
          "name": "approvals",
          "type": "tuple[]"
        }
      ],
      "name": "lockdown",
      "outputs": [],
      "stateMutability": "nonpayable",
      "type": "function"
    },
    {
      "inputs": [
        {
          "internalType": "address",
          "name": "",
          "type": "address"
        },
        {
          "internalType": "uint256",
          "name": "",
          "type": "uint256"
        }
      ],
      "name": "nonceBitmap",
      "outputs": [
        {
          "internalType": "uint256",
          "name": "",
          "type": "uint256"
        }
      ],
      "stateMutability": "view",
      "type": "function"
    },
    {
      "inputs": [
        {
          "internalType": "address",
          "name": "owner",
          "type": "address"
        },
        {
          "components": [
            {
              "components": [
                {
                  "internalType": "address",
                  "name": "token",
                  "type": "address"
                },
                {
                  "internalType": "uint160",
                  "name": "amount",
                  "type": "uint160"
                },
                {
                  "internalType": "uint48",
                  "name": "expiration",
                  "type": "uint48"
                },
                {
                  "internalType": "uint48",
                  "name": "nonce",
                  "type": "uint48"
                }
              ],
              "internalType": "struct IAllowanceTransfer.PermitDetails[]",
              "name": "details",
              "type": "tuple[]"
            },
            {
              "internalType": "address",
              "name": "spender",
              "type": "address"
            },
            {
              "internalType": "uint256",
              "name": "sigDeadline",
              "type": "uint256"
            }
          ],
          "internalType": "struct IAllowanceTransfer.PermitBatch",
          "name": "permitBatch",
          "type": "tuple"
        },
        {
          "internalType": "bytes",
          "name": "signature",
          "type": "bytes"
        }
      ],
      "name": "permit",
      "outputs": [],
      "stateMutability": "nonpayable",
      "type": "function"
    },
    {
      "inputs": [
        {
          "internalType": "address",
          "name": "owner",
          "type": "address"
        },
        {
          "components": [
            {
              "components": [
                {
                  "internalType": "address",
                  "name": "token",
                  "type": "address"
                },
                {
                  "internalType": "uint160",
                  "name": "amount",
                  "type": "uint160"
                },
                {
                  "internalType": "uint48",
                  "name": "expiration",
                  "type": "uint48"
                },
                {
                  "internalType": "uint48",
                  "name": "nonce",
                  "type": "uint48"
                }
              ],
              "internalType": "struct IAllowanceTransfer.PermitDetails",
              "name": "details",
              "type": "tuple"
            },
            {
              "internalType": "address",
              "name": "spender",
              "type": "address"
            },
            {
              "internalType": "uint256",
              "name": "sigDeadline",
              "type": "uint256"
            }
          ],
          "internalType": "struct IAllowanceTransfer.PermitSingle",
          "name": "permitSingle",
          "type": "tuple"
        },
        {
          "internalType": "bytes",
          "name": "signature",
          "type": "bytes"
        }
      ],
      "name": "permit",
      "outputs": [],
      "stateMutability": "nonpayable",
      "type": "function"
    },
    {
      "inputs": [
        {
          "components": [
            {
              "components": [
                {
                  "internalType": "address",
                  "name": "token",
                  "type": "address"
                },
                {
                  "internalType": "uint256",
                  "name": "amount",
                  "type": "uint256"
                }
              ],
              "internalType": "struct ISignatureTransfer.TokenPermissions",
              "name": "permitted",
              "type": "tuple"
            },
            {
              "internalType": "uint256",
              "name": "nonce",
              "type": "uint256"
            },
            {
              "internalType": "uint256",
              "name": "deadline",
              "type": "uint256"
            }
          ],
          "internalType": "struct ISignatureTransfer.PermitTransferFrom",
          "name": "permit",
          "type": "tuple"
        },
        {
          "components": [
            {
              "internalType": "address",
              "name": "to",
              "type": "address"
            },
            {
              "internalType": "uint256",
              "name": "requestedAmount",
              "type": "uint256"
            }
          ],
          "internalType": "struct ISignatureTransfer.SignatureTransferDetails",
          "name": "transferDetails",
          "type": "tuple"
        },
        {
          "internalType": "address",
          "name": "owner",
          "type": "address"
        },
        {
          "internalType": "bytes",
          "name": "signature",
          "type": "bytes"
        }
      ],
      "name": "permitTransferFrom",
      "outputs": [],
      "stateMutability": "nonpayable",
      "type": "function"
    },
    {
      "inputs": [
        {
          "components": [
            {
              "components": [
                {
                  "internalType": "address",
                  "name": "token",
                  "type": "address"
                },
                {
                  "internalType": "uint256",
                  "name": "amount",
                  "type": "uint256"
                }
              ],
              "internalType": "struct ISignatureTransfer.TokenPermissions[]",
              "name": "permitted",
              "type": "tuple[]"
            },
            {
              "internalType": "uint256",
              "name": "nonce",
              "type": "uint256"
            },
            {
              "internalType": "uint256",
              "name": "deadline",
              "type": "uint256"
            }
          ],
          "internalType": "struct ISignatureTransfer.PermitBatchTransferFrom",
          "name": "permit",
          "type": "tuple"
        },
        {
          "components": [
            {
              "internalType": "address",
              "name": "to",
              "type": "address"
            },
            {
              "internalType": "uint256",
              "name": "requestedAmount",
              "type": "uint256"
            }
          ],
          "internalType": "struct ISignatureTransfer.SignatureTransferDetails[]",
          "name": "transferDetails",
          "type": "tuple[]"
        },
        {
          "internalType": "address",
          "name": "owner",
          "type": "address"
        },
        {
          "internalType": "bytes",
          "name": "signature",
          "type": "bytes"
        }
      ],
      "name": "permitTransferFrom",
      "outputs": [],
      "stateMutability": "nonpayable",
      "type": "function"
    },
    {
      "inputs": [
        {
          "components": [
            {
              "components": [
                {
                  "internalType": "address",
                  "name": "token",
                  "type": "address"
                },
                {
                  "internalType": "uint256",
                  "name": "amount",
                  "type": "uint256"
                }
              ],
              "internalType": "struct ISignatureTransfer.TokenPermissions",
              "name": "permitted",
              "type": "tuple"
            },
            {
              "internalType": "uint256",
              "name": "nonce",
              "type": "uint256"
            },
            {
              "internalType": "uint256",
              "name": "deadline",
              "type": "uint256"
            }
          ],
          "internalType": "struct ISignatureTransfer.PermitTransferFrom",
          "name": "permit",
          "type": "tuple"
        },
        {
          "components": [
            {
              "internalType": "address",
              "name": "to",
              "type": "address"
            },
            {
              "internalType": "uint256",
              "name": "requestedAmount",
              "type": "uint256"
            }
          ],
          "internalType": "struct ISignatureTransfer.SignatureTransferDetails",
          "name": "transferDetails",
          "type": "tuple"
        },
        {
          "internalType": "address",
          "name": "owner",
          "type": "address"
        },
        {
          "internalType": "bytes32",
          "name": "witness",
          "type": "bytes32"
        },
        {
          "internalType": "string",
          "name": "witnessTypeString",
          "type": "string"
        },
        {
          "internalType": "bytes",
          "name": "signature",
          "type": "bytes"
        }
      ],
      "name": "permitWitnessTransferFrom",
      "outputs": [],
      "stateMutability": "nonpayable",
      "type": "function"
    },
    {
      "inputs": [
        {
          "components": [
            {
              "components": [
                {
                  "internalType": "address",
                  "name": "token",
                  "type": "address"
                },
                {
                  "internalType": "uint256",
                  "name": "amount",
                  "type": "uint256"
                }
              ],
              "internalType": "struct ISignatureTransfer.TokenPermissions[]",
              "name": "permitted",
              "type": "tuple[]"
            },
            {
              "internalType": "uint256",
              "name": "nonce",
              "type": "uint256"
            },
            {
              "internalType": "uint256",
              "name": "deadline",
              "type": "uint256"
            }
          ],
          "internalType": "struct ISignatureTransfer.PermitBatchTransferFrom",
          "name": "permit",
          "type": "tuple"
        },
        {
          "components": [
            {
              "internalType": "address",
              "name": "to",
              "type": "address"
            },
            {
              "internalType": "uint256",
              "name": "requestedAmount",
              "type": "uint256"
            }
          ],
          "internalType": "struct ISignatureTransfer.SignatureTransferDetails[]",
          "name": "transferDetails",
          "type": "tuple[]"
        },
        {
          "internalType": "address",
          "name": "owner",
          "type": "address"
        },
        {
          "internalType": "bytes32",
          "name": "witness",
          "type": "bytes32"
        },
        {
          "internalType": "string",
          "name": "witnessTypeString",
          "type": "string"
        },
        {
          "internalType": "bytes",
          "name": "signature",
          "type": "bytes"
        }
      ],
      "name": "permitWitnessTransferFrom",
      "outputs": [],
      "stateMutability": "nonpayable",
      "type": "function"
    },
    {
      "inputs": [
        {
          "components": [
            {
              "internalType": "address",
              "name": "from",
              "type": "address"
            },
            {
              "internalType": "address",
              "name": "to",
              "type": "address"
            },
            {
              "internalType": "uint160",
              "name": "amount",
              "type": "uint160"
            },
            {
              "internalType": "address",
              "name": "token",
              "type": "address"
            }
          ],
          "internalType": "struct IAllowanceTransfer.AllowanceTransferDetails[]",
          "name": "transferDetails",
          "type": "tuple[]"
        }
      ],
      "name": "transferFrom",
      "outputs": [],
      "stateMutability": "nonpayable",
      "type": "function"
    },
    {
      "inputs": [
        {
          "internalType": "address",
          "name": "from",
          "type": "address"
        },
        {
          "internalType": "address",
          "name": "to",
          "type": "address"
        },
        {
          "internalType": "uint160",
          "name": "amount",
          "type": "uint160"
        },
        {
          "internalType": "address",
          "name": "token",
          "type": "address"
        }
      ],
      "name": "transferFrom",
      "outputs": [],
      "stateMutability": "nonpayable",
      "type": "function"
    }
  ],
  "transactionHash": "0x0053300796231a40629836029a28f52281970b01d6c2cc2aa37ddab9a3e32d27",
  "args": [],
  "numDeployments": 2,
  "solcInputHash": "35b1c3e3262a688289dcf9aad1efe7a9",
  "bytecode": "0x60c0346100bb574660a052602081017f8cad95687ba82c2ce50e74f7b754645e5117c3a5bec8151c0726d5857980a86681527f9ac997416e8ff9d2ff6bebeb7149f65cdae5e32e2b90440b566bb3044041d36a60408301524660608301523060808301526080825260a082019180831060018060401b038411176100a557826040525190206080526123c090816100c1823960805181611a90015260a05181611a6a0152f35b634e487b7160e01b600052604160045260246000fd5b600080fdfe6040608081526004908136101561001557600080fd5b600090813560e01c80630d58b1db1461126c578063137c29fe146110755780632a2d80d114610db75780632b67b57014610bde57806330f28b7a14610ade5780633644e51514610a9d57806336c7851614610a285780633ff9dcb1146109a85780634fe02b441461093f57806365d9723c146107ac57806387517c451461067a578063927da105146105c3578063cc53287f146104a3578063edd9444b1461033a5763fe8ec1a7146100c657600080fd5b346103365760c07ffffffffffffffffffffffffffffffffffffffffffffffffffffffffffffffffc3601126103365767ffffffffffffffff833581811161033257610114903690860161164b565b60243582811161032e5761012b903690870161161a565b6101336114e6565b9160843585811161032a5761014b9036908a016115c1565b98909560a43590811161032657610164913691016115c1565b969095815190610173826113ff565b606b82527f5065726d697442617463685769746e6573735472616e7366657246726f6d285460208301527f6f6b656e5065726d697373696f6e735b5d207065726d69747465642c61646472838301527f657373207370656e6465722c75696e74323536206e6f6e63652c75696e74323560608301527f3620646561646c696e652c000000000000000000000000000000000000000000608083015282519a8b9181610222602085018096611edc565b918237018a8152039961025b7fffffffffffffffffffffffffffffffffffffffffffffffffffffffffffffffe09b8c8101835282611437565b5190209085515161026b81611e04565b908a5b8181106102f95750506102f6999a6102ed9183516102a081610294602082018095611eaf565b03848101835282611437565b519020602089810151858b015195519182019687526040820192909252336060820152608081019190915260a081019390935260643560c08401528260e081015b03908101835282611437565b51902093611c40565b80f35b8061031161030b610321938c5161175e565b51611f9d565b61031b828661175e565b52611e53565b61026e565b8880fd5b8780fd5b8480fd5b8380fd5b5080fd5b5091346103365760807ffffffffffffffffffffffffffffffffffffffffffffffffffffffffffffffffc3601126103365767ffffffffffffffff9080358281116103325761038b903690830161164b565b60243583811161032e576103a2903690840161161a565b9390926103ad6114e6565b9160643590811161049f576103c4913691016115c1565b949093835151976103d489611e04565b98885b81811061047d5750506102f697988151610425816103f9602082018095611eaf565b037fffffffffffffffffffffffffffffffffffffffffffffffffffffffffffffffe08101835282611437565b5190206020860151828701519083519260208401947ffcf35f5ac6a2c28868dc44c302166470266239195f02b0ee408334829333b7668652840152336060840152608083015260a082015260a081526102ed8161141b565b808b61031b8261049461030b61049a968d5161175e565b9261175e565b6103d7565b8680fd5b5082346105bf57602090817ffffffffffffffffffffffffffffffffffffffffffffffffffffffffffffffffc3601126103325780359067ffffffffffffffff821161032e576104f49136910161161a565b929091845b848110610504578580f35b8061051a61051560019388886118b5565b6118c5565b61052f84610529848a8a6118b5565b016118c5565b3389528385528589209173ffffffffffffffffffffffffffffffffffffffff80911692838b528652868a20911690818a5285528589207fffffffffffffffffffffffff000000000000000000000000000000000000000081541690558551918252848201527f89b1add15eff56b3dfe299ad94e01f2b52fbcb80ae1a3baea6ae8c04cb2b98a4853392a2016104f9565b8280fd5b50346103365760607ffffffffffffffffffffffffffffffffffffffffffffffffffffffffffffffffc36011261033657610676816105ff6114a0565b936106086114c3565b6106106114e6565b73ffffffffffffffffffffffffffffffffffffffff968716835260016020908152848420928816845291825283832090871683528152919020549251938316845260a083901c65ffffffffffff169084015260d09190911c604083015281906060820190565b0390f35b50346103365760807ffffffffffffffffffffffffffffffffffffffffffffffffffffffffffffffffc360112610336576106b26114a0565b906106bb6114c3565b916106c46114e6565b65ffffffffffff926064358481169081810361032a5779ffffffffffff0000000000000000000000000000000000000000947fda9fa7c1b00402c17d0161b249b1ab8bbec047c5a52207b9c112deffd817036b94338a5260016020527fffffffffffff0000000000000000000000000000000000000000000000000000858b209873ffffffffffffffffffffffffffffffffffffffff809416998a8d5260205283878d209b169a8b8d52602052868c209486156000146107a457504216925b8454921697889360a01b16911617179055815193845260208401523392a480f35b905092610783565b5082346105bf5760607ffffffffffffffffffffffffffffffffffffffffffffffffffffffffffffffffc3601126105bf576107e56114a0565b906107ee6114c3565b9265ffffffffffff604435818116939084810361032a57338852602091600183528489209673ffffffffffffffffffffffffffffffffffffffff80911697888b528452858a20981697888a5283528489205460d01c93848711156109175761ffff9085840316116108f05750907f55eb90d810e1700b35a8e7e25395ff7f2b2259abd7415ca2284dfb1c246418f393929133895260018252838920878a528252838920888a5282528389209079ffffffffffffffffffffffffffffffffffffffffffffffffffff7fffffffffffff000000000000000000000000000000000000000000000000000083549260d01b16911617905582519485528401523392a480f35b84517f24d35a26000000000000000000000000000000000000000000000000000000008152fd5b5084517f756688fe000000000000000000000000000000000000000000000000000000008152fd5b503461033657807ffffffffffffffffffffffffffffffffffffffffffffffffffffffffffffffffc360112610336578060209273ffffffffffffffffffffffffffffffffffffffff61098f6114a0565b1681528084528181206024358252845220549051908152f35b5082346105bf57817ffffffffffffffffffffffffffffffffffffffffffffffffffffffffffffffffc3601126105bf577f3704902f963766a4e561bbaab6e6cdc1b1dd12f6e9e99648da8843b3f46b918d90359160243533855284602052818520848652602052818520818154179055815193845260208401523392a280f35b8234610a9a5760807ffffffffffffffffffffffffffffffffffffffffffffffffffffffffffffffffc360112610a9a57610a606114a0565b610a686114c3565b610a706114e6565b6064359173ffffffffffffffffffffffffffffffffffffffff8316830361032e576102f6936117a1565b80fd5b503461033657817ffffffffffffffffffffffffffffffffffffffffffffffffffffffffffffffffc36011261033657602090610ad7611a67565b9051908152f35b508290346105bf576101007ffffffffffffffffffffffffffffffffffffffffffffffffffffffffffffffffc3601126105bf57610b1a3661152a565b90807fffffffffffffffffffffffffffffffffffffffffffffffffffffffffffffff7c36011261033257610b4c611478565b9160e43567ffffffffffffffff8111610bda576102f694610b6f913691016115c1565b939092610b7c8351611f9d565b6020840151828501519083519260208401947f939c21a48a8dbe3a9a2404a1d46691e4d39f6583d6ec6b35714604c986d801068652840152336060840152608083015260a082015260a08152610bd18161141b565b51902091611b6e565b8580fd5b509134610336576101007ffffffffffffffffffffffffffffffffffffffffffffffffffffffffffffffffc36011261033657610c186114a0565b7fffffffffffffffffffffffffffffffffffffffffffffffffffffffffffffffdc360160c08112610332576080855191610c51836113e3565b1261033257845190610c6282611398565b73ffffffffffffffffffffffffffffffffffffffff91602435838116810361049f578152604435838116810361049f57602082015265ffffffffffff606435818116810361032a5788830152608435908116810361049f576060820152815260a435938285168503610bda576020820194855260c4359087830182815260e43567ffffffffffffffff811161032657610cfe90369084016115c1565b929093804211610d88575050918591610d786102f6999a610d7e95610d238851611f07565b90898c511690519083519260208401947ff3841cd1ff0085026a6327b620b67997ce40f282c88a8e905a7a5626e310f3d086528401526060830152608082015260808152610d70816113ff565b519020611b22565b91612010565b51925116916118e6565b602492508a51917fcd21db4f000000000000000000000000000000000000000000000000000000008352820152fd5b5091346103365760607ffffffffffffffffffffffffffffffffffffffffffffffffffffffffffffffffc93818536011261033257610df36114a0565b9260249081359267ffffffffffffffff9788851161032a578590853603011261049f578051978589018981108282111761104a578252848301358181116103265785019036602383011215610326578382013591610e50836115ef565b90610e5d85519283611437565b838252602093878584019160071b83010191368311611046578801905b828210610fe9575050508a526044610e93868801611509565b96838c01978852013594838b0191868352604435908111610fe557610ebb90369087016115c1565b959096804211610fba575050508998995151610ed681611e04565b908b5b818110610f9757505092889492610d7892610f6497958351610f02816103f98682018095611eaf565b5190209073ffffffffffffffffffffffffffffffffffffffff9a8b8b51169151928551948501957faf1b0d30d2cab0380e68f0689007e3254993c596f2fdd0aaa7f4d04f794408638752850152830152608082015260808152610d70816113ff565b51169082515192845b848110610f78578580f35b80610f918585610f8b600195875161175e565b516118e6565b01610f6d565b80610311610fac8e9f9e93610fb2945161175e565b51611f07565b9b9a9b610ed9565b8551917fcd21db4f000000000000000000000000000000000000000000000000000000008352820152fd5b8a80fd5b6080823603126110465785608091885161100281611398565b61100b85611509565b8152611018838601611509565b838201526110278a8601611607565b8a8201528d611037818701611607565b90820152815201910190610e7a565b8c80fd5b84896041867f4e487b7100000000000000000000000000000000000000000000000000000000835252fd5b5082346105bf576101407ffffffffffffffffffffffffffffffffffffffffffffffffffffffffffffffffc3601126105bf576110b03661152a565b91807fffffffffffffffffffffffffffffffffffffffffffffffffffffffffffffff7c360112610332576110e2611478565b67ffffffffffffffff93906101043585811161049f5761110590369086016115c1565b90936101243596871161032a57611125610bd1966102f6983691016115c1565b969095825190611134826113ff565b606482527f5065726d69745769746e6573735472616e7366657246726f6d28546f6b656e5060208301527f65726d697373696f6e73207065726d69747465642c6164647265737320737065848301527f6e6465722c75696e74323536206e6f6e63652c75696e7432353620646561646c60608301527f696e652c0000000000000000000000000000000000000000000000000000000060808301528351948591816111e3602085018096611edc565b918237018b8152039361121c7fffffffffffffffffffffffffffffffffffffffffffffffffffffffffffffffe095868101835282611437565b5190209261122a8651611f9d565b6020878101518589015195519182019687526040820192909252336060820152608081019190915260a081019390935260e43560c08401528260e081016102e1565b5082346105bf576020807ffffffffffffffffffffffffffffffffffffffffffffffffffffffffffffffffc36011261033257813567ffffffffffffffff92838211610bda5736602383011215610bda5781013592831161032e576024906007368386831b8401011161049f57865b8581106112e5578780f35b80821b83019060807fffffffffffffffffffffffffffffffffffffffffffffffffffffffffffffffdc83360301126103265761139288876001946060835161132c81611398565b611368608461133c8d8601611509565b9485845261134c60448201611509565b809785015261135d60648201611509565b809885015201611509565b918291015273ffffffffffffffffffffffffffffffffffffffff80808093169516931691166117a1565b016112da565b6080810190811067ffffffffffffffff8211176113b457604052565b7f4e487b7100000000000000000000000000000000000000000000000000000000600052604160045260246000fd5b6060810190811067ffffffffffffffff8211176113b457604052565b60a0810190811067ffffffffffffffff8211176113b457604052565b60c0810190811067ffffffffffffffff8211176113b457604052565b90601f7fffffffffffffffffffffffffffffffffffffffffffffffffffffffffffffffe0910116810190811067ffffffffffffffff8211176113b457604052565b60c4359073ffffffffffffffffffffffffffffffffffffffff8216820361149b57565b600080fd5b6004359073ffffffffffffffffffffffffffffffffffffffff8216820361149b57565b6024359073ffffffffffffffffffffffffffffffffffffffff8216820361149b57565b6044359073ffffffffffffffffffffffffffffffffffffffff8216820361149b57565b359073ffffffffffffffffffffffffffffffffffffffff8216820361149b57565b7ffffffffffffffffffffffffffffffffffffffffffffffffffffffffffffffffc01906080821261149b576040805190611563826113e3565b8082941261149b57805181810181811067ffffffffffffffff8211176113b457825260043573ffffffffffffffffffffffffffffffffffffffff8116810361149b578152602435602082015282526044356020830152606435910152565b9181601f8401121561149b5782359167ffffffffffffffff831161149b576020838186019501011161149b57565b67ffffffffffffffff81116113b45760051b60200190565b359065ffffffffffff8216820361149b57565b9181601f8401121561149b5782359167ffffffffffffffff831161149b576020808501948460061b01011161149b57565b91909160608184031261149b576040805191611666836113e3565b8294813567ffffffffffffffff9081811161149b57830182601f8201121561149b578035611693816115ef565b926116a087519485611437565b818452602094858086019360061b8501019381851161149b579086899897969594939201925b8484106116e3575050505050855280820135908501520135910152565b90919293949596978483031261149b578851908982019082821085831117611730578a928992845261171487611509565b81528287013583820152815201930191908897969594936116c6565b602460007f4e487b710000000000000000000000000000000000000000000000000000000081526041600452fd5b80518210156117725760209160051b010190565b7f4e487b7100000000000000000000000000000000000000000000000000000000600052603260045260246000fd5b92919273ffffffffffffffffffffffffffffffffffffffff604060008284168152600160205282828220961695868252602052818120338252602052209485549565ffffffffffff8760a01c16804211611884575082871696838803611812575b5050611810955016926122fc565b565b878484161160001461184f57602488604051907ff96fb0710000000000000000000000000000000000000000000000000000000082526004820152fd5b7fffffffffffffffffffffffff000000000000000000000000000000000000000084846118109a031691161790553880611802565b602490604051907fd81b2f2e0000000000000000000000000000000000000000000000000000000082526004820152fd5b91908110156117725760061b0190565b3573ffffffffffffffffffffffffffffffffffffffff8116810361149b5790565b9065ffffffffffff908160608401511673ffffffffffffffffffffffffffffffffffffffff908185511694826020820151169280866040809401511695169560009187835260016020528383208984526020528383209916988983526020528282209184835460d01c03611a3e579185611a1794927fc6a377bfc4eb120024a8ac08eef205be16b817020812c73223e81d1bdb9708ec98979694508715600014611a1c5779ffffffffffff00000000000000000000000000000000000000009042165b60a01b167fffffffffffff00000000000000000000000000000000000000000000000000006001860160d01b1617179055519384938491604091949373ffffffffffffffffffffffffffffffffffffffff606085019616845265ffffffffffff809216602085015216910152565b0390a4565b5079ffffffffffff0000000000000000000000000000000000000000876119a9565b600484517f756688fe000000000000000000000000000000000000000000000000000000008152fd5b467f000000000000000000000000000000000000000000000000000000000000000003611ab2577f000000000000000000000000000000000000000000000000000000000000000090565b60405160208101907f8cad95687ba82c2ce50e74f7b754645e5117c3a5bec8151c0726d5857980a86682527f9ac997416e8ff9d2ff6bebeb7149f65cdae5e32e2b90440b566bb3044041d36a604082015246606082015230608082015260808152611b1c816113ff565b51902090565b611b2a611a67565b906040519060208201927f190100000000000000000000000000000000000000000000000000000000000084526022830152604282015260428152611b1c81611398565b9192909360a435936040840151804211611c0f5750602084510151808611611bde5750918591610d78611bae94611ba9602088015186611d90565b611b22565b73ffffffffffffffffffffffffffffffffffffffff809151511692608435918216820361149b57611810936122fc565b602490604051907f3728b83d0000000000000000000000000000000000000000000000000000000082526004820152fd5b602490604051907fcd21db4f0000000000000000000000000000000000000000000000000000000082526004820152fd5b959093958051519560409283830151804211611d605750848803611d3757611c77918691610d7860209b611ba98d88015186611d90565b60005b868110611c8b575050505050505050565b611c9681835161175e565b5188611ca383878a6118b5565b01359089810151808311611d07575091818888886001968596611ccd575b50505050505001611c7a565b611cfc95611cf69273ffffffffffffffffffffffffffffffffffffffff610515935116956118b5565b916122fc565b803888888883611cc1565b6024908651907f3728b83d0000000000000000000000000000000000000000000000000000000082526004820152fd5b600484517fff633a38000000000000000000000000000000000000000000000000000000008152fd5b6024908551907fcd21db4f0000000000000000000000000000000000000000000000000000000082526004820152fd5b9073ffffffffffffffffffffffffffffffffffffffff600160ff83161b9216600052600060205260406000209060081c6000526020526040600020818154188091551615611dda57565b60046040517f756688fe000000000000000000000000000000000000000000000000000000008152fd5b90611e0e826115ef565b611e1b6040519182611437565b8281527fffffffffffffffffffffffffffffffffffffffffffffffffffffffffffffffe0611e4982946115ef565b0190602036910137565b7fffffffffffffffffffffffffffffffffffffffffffffffffffffffffffffffff8114611e805760010190565b7f4e487b7100000000000000000000000000000000000000000000000000000000600052601160045260246000fd5b805160208092019160005b828110611ec8575050505090565b835185529381019392810192600101611eba565b9081519160005b838110611ef4575050016000815290565b8060208092840101518185015201611ee3565b60405160208101917f65626cad6cb96493bf6f5ebea28756c966f023ab9e8a83a7101849d5573b3678835273ffffffffffffffffffffffffffffffffffffffff8082511660408401526020820151166060830152606065ffffffffffff9182604082015116608085015201511660a082015260a0815260c0810181811067ffffffffffffffff8211176113b45760405251902090565b6040516020808201927f618358ac3db8dc274f0cd8829da7e234bd48cd73c4a740aede1adec9846d06a1845273ffffffffffffffffffffffffffffffffffffffff81511660408401520151606082015260608152611b1c81611398565b919082604091031261149b576020823592013590565b6000843b6121775750604182036120f55761202d82820182611ffa565b939092604010156117725760209360009360ff6040608095013560f81c5b60405194855216868401526040830152606082015282805260015afa156120e95773ffffffffffffffffffffffffffffffffffffffff80600051169182156120bf57160361209557565b60046040517f815e1d64000000000000000000000000000000000000000000000000000000008152fd5b60046040517f8baa579f000000000000000000000000000000000000000000000000000000008152fd5b6040513d6000823e3d90fd5b6040820361214d5761210991810190611ffa565b91601b7f7fffffffffffffffffffffffffffffffffffffffffffffffffffffffffffffff84169360ff1c019060ff8211611e805760209360009360ff60809461204b565b60046040517f4be6321b000000000000000000000000000000000000000000000000000000008152fd5b929391601f928173ffffffffffffffffffffffffffffffffffffffff60646020957fffffffffffffffffffffffffffffffffffffffffffffffffffffffffffffffe0604051988997889687947f1626ba7e000000000000000000000000000000000000000000000000000000009e8f8752600487015260406024870152816044870152868601378b85828601015201168101030192165afa9081156122f1578291612273575b507fffffffff000000000000000000000000000000000000000000000000000000009150160361224957565b60046040517fb0669cbc000000000000000000000000000000000000000000000000000000008152fd5b90506020813d82116122e9575b8161228d60209383611437565b810103126103365751907fffffffff0000000000000000000000000000000000000000000000000000000082168203610a9a57507fffffffff00000000000000000000000000000000000000000000000000000000903861221d565b3d9150612280565b6040513d84823e3d90fd5b9060006064926020958295604051947f23b872dd0000000000000000000000000000000000000000000000000000000086526004860152602485015260448401525af13d15601f3d116001600051141617161561235557565b60646040517f08c379a000000000000000000000000000000000000000000000000000000000815260206004820152601460248201527f5452414e534645525f46524f4d5f4641494c45440000000000000000000000006044820152fdfea164736f6c6343000811000a",
  "devdoc": {
    "details": "Users must approve Permit2 before calling any of the transfer functions.",
    "errors": {
      "AllowanceExpired(uint256)": [
        {
          "params": {
            "deadline": "The timestamp at which the allowed amount is no longer valid"
          }
        }
      ],
      "InsufficientAllowance(uint256)": [
        {
          "params": {
            "amount": "The maximum amount allowed"
          }
        }
      ],
      "InvalidAmount(uint256)": [
        {
          "params": {
            "maxAmount": "The maximum amount a spender can request to transfer"
          }
        }
      ],
      "LengthMismatch()": [
        {
          "details": "If the spender does not need to transfer the number of tokens permitted, the spender can request amount 0 to be transferred"
        }
      ],
      "SignatureExpired(uint256)": [
        {
          "params": {
            "signatureDeadline": "The timestamp at which a signature is no longer valid"
          }
        }
      ]
    },
    "kind": "dev",
    "methods": {
      "DOMAIN_SEPARATOR()": {
        "details": "Uses cached version if chainid and address are unchanged from construction."
      },
      "approve(address,address,uint160,uint48)": {
        "details": "The packed allowance also holds a nonce, which will stay unchanged in approveSetting amount to type(uint160).max sets an unlimited approval",
        "params": {
          "amount": "The approved amount of the token",
          "expiration": "The timestamp at which the approval is no longer valid",
          "spender": "The spender address to approve",
          "token": "The token to approve"
        }
      },
      "invalidateNonces(address,address,uint48)": {
        "details": "Can't invalidate more than 2**16 nonces per transaction.",
        "params": {
          "newNonce": "The new nonce to set. Invalidates all nonces less than it.",
          "spender": "The spender to invalidate nonces for",
          "token": "The token to invalidate nonces for"
        }
      },
      "invalidateUnorderedNonces(uint256,uint256)": {
        "details": "The wordPos is maxed at type(uint248).max",
        "params": {
          "mask": "A bitmap masked against msg.sender's current bitmap at the word position",
          "wordPos": "A number to index the nonceBitmap at"
        }
      },
      "lockdown((address,address)[])": {
        "params": {
          "approvals": "Array of approvals to revoke."
        }
      },
      "permit(address,((address,uint160,uint48,uint48),address,uint256),bytes)": {
        "details": "May fail if the owner's nonce was invalidated in-flight by invalidateNonce",
        "params": {
          "owner": "The owner of the tokens being approved",
          "permitSingle": "Data signed over by the owner specifying the terms of approval",
          "signature": "The owner's signature over the permit data"
        }
      },
      "permit(address,((address,uint160,uint48,uint48)[],address,uint256),bytes)": {
        "details": "May fail if the owner's nonce was invalidated in-flight by invalidateNonce",
        "params": {
          "owner": "The owner of the tokens being approved",
          "permitBatch": "Data signed over by the owner specifying the terms of approval",
          "signature": "The owner's signature over the permit data"
        }
      },
      "permitTransferFrom(((address,uint256),uint256,uint256),(address,uint256),address,bytes)": {
        "details": "Reverts if the requested amount is greater than the permitted signed amount",
        "params": {
          "owner": "The owner of the tokens to transfer",
          "permit": "The permit data signed over by the owner",
          "signature": "The signature to verify",
          "transferDetails": "The spender's requested transfer details for the permitted token"
        }
      },
      "permitTransferFrom(((address,uint256)[],uint256,uint256),(address,uint256)[],address,bytes)": {
        "params": {
          "owner": "The owner of the tokens to transfer",
          "permit": "The permit data signed over by the owner",
          "signature": "The signature to verify",
          "transferDetails": "Specifies the recipient and requested amount for the token transfer"
        }
      },
      "permitWitnessTransferFrom(((address,uint256),uint256,uint256),(address,uint256),address,bytes32,string,bytes)": {
        "details": "The witness type string must follow EIP712 ordering of nested structs and must include the TokenPermissions type definitionReverts if the requested amount is greater than the permitted signed amount",
        "params": {
          "owner": "The owner of the tokens to transfer",
          "permit": "The permit data signed over by the owner",
          "signature": "The signature to verify",
          "transferDetails": "The spender's requested transfer details for the permitted token",
          "witness": "Extra data to include when checking the user signature",
          "witnessTypeString": "The EIP-712 type definition for remaining string stub of the typehash"
        }
      },
      "permitWitnessTransferFrom(((address,uint256)[],uint256,uint256),(address,uint256)[],address,bytes32,string,bytes)": {
        "details": "The witness type string must follow EIP712 ordering of nested structs and must include the TokenPermissions type definition",
        "params": {
          "owner": "The owner of the tokens to transfer",
          "permit": "The permit data signed over by the owner",
          "signature": "The signature to verify",
          "transferDetails": "Specifies the recipient and requested amount for the token transfer",
          "witness": "Extra data to include when checking the user signature",
          "witnessTypeString": "The EIP-712 type definition for remaining string stub of the typehash"
        }
      },
      "transferFrom((address,address,uint160,address)[])": {
        "details": "Requires the from addresses to have approved at least the desired amount of tokens to msg.sender.",
        "params": {
          "transferDetails": "Array of owners, recipients, amounts, and tokens for the transfers"
        }
      },
      "transferFrom(address,address,uint160,address)": {
        "details": "Requires the from address to have approved at least the desired amount of tokens to msg.sender.",
        "params": {
          "amount": "The amount of the token to transfer",
          "from": "The address to transfer from",
          "to": "The address of the recipient",
          "token": "The token address to transfer"
        }
      }
    },
    "version": 1
  },
  "userdoc": {
    "errors": {
      "AllowanceExpired(uint256)": [
        {
          "notice": "Thrown when an allowance on a token has expired."
        }
      ],
      "ExcessiveInvalidation()": [
        {
          "notice": "Thrown when too many nonces are invalidated."
        }
      ],
      "InsufficientAllowance(uint256)": [
        {
          "notice": "Thrown when an allowance on a token has been depleted."
        }
      ],
      "InvalidAmount(uint256)": [
        {
          "notice": "Thrown when the requested amount for a transfer is larger than the permissioned amount"
        }
      ],
      "InvalidContractSignature()": [
        {
          "notice": "Thrown when the recovered contract signature is incorrect"
        }
      ],
      "InvalidNonce()": [
        {
          "notice": "Thrown when validating that the inputted nonce has not been used"
        }
      ],
      "InvalidSignature()": [
        {
          "notice": "Thrown when the recovered signer is equal to the zero address"
        }
      ],
      "InvalidSignatureLength()": [
        {
          "notice": "Thrown when the passed in signature is not a valid length"
        }
      ],
      "InvalidSigner()": [
        {
          "notice": "Thrown when the recovered signer does not equal the claimedSigner"
        }
      ],
      "LengthMismatch()": [
        {
          "notice": "Thrown when the number of tokens permissioned to a spender does not match the number of tokens being transferred"
        }
      ],
      "SignatureExpired(uint256)": [
        {
          "notice": "Thrown when validating an inputted signature that is stale"
        }
      ]
    },
    "events": {
      "Approval(address,address,address,uint160,uint48)": {
        "notice": "Emits an event when the owner successfully sets permissions on a token for the spender."
      },
      "Lockdown(address,address,address)": {
        "notice": "Emits an event when the owner sets the allowance back to 0 with the lockdown function."
      },
      "NonceInvalidation(address,address,address,uint48,uint48)": {
        "notice": "Emits an event when the owner successfully invalidates an ordered nonce."
      },
      "Permit(address,address,address,uint160,uint48,uint48)": {
        "notice": "Emits an event when the owner successfully sets permissions using a permit signature on a token for the spender."
      },
      "UnorderedNonceInvalidation(address,uint256,uint256)": {
        "notice": "Emits an event when the owner successfully invalidates an unordered nonce."
      }
    },
    "kind": "user",
    "methods": {
      "DOMAIN_SEPARATOR()": {
        "notice": "Returns the domain separator for the current chain."
      },
      "allowance(address,address,address)": {
        "notice": "Maps users to tokens to spender addresses and information about the approval on the token"
      },
      "approve(address,address,uint160,uint48)": {
        "notice": "Approves the spender to use up to amount of the specified token up until the expiration"
      },
      "invalidateNonces(address,address,uint48)": {
        "notice": "Invalidate nonces for a given (token, spender) pair"
      },
      "invalidateUnorderedNonces(uint256,uint256)": {
        "notice": "Invalidates the bits specified in mask for the bitmap at the word position"
      },
      "lockdown((address,address)[])": {
        "notice": "Enables performing a \"lockdown\" of the sender's Permit2 identity by batch revoking approvals"
      },
      "nonceBitmap(address,uint256)": {
        "notice": "A map from token owner address and a caller specified word index to a bitmap. Used to set bits in the bitmap to prevent against signature replay protection"
      },
      "permit(address,((address,uint160,uint48,uint48),address,uint256),bytes)": {
        "notice": "Permit a spender to a given amount of the owners token via the owner's EIP-712 signature"
      },
      "permit(address,((address,uint160,uint48,uint48)[],address,uint256),bytes)": {
        "notice": "Permit a spender to the signed amounts of the owners tokens via the owner's EIP-712 signature"
      },
      "permitTransferFrom(((address,uint256),uint256,uint256),(address,uint256),address,bytes)": {
        "notice": "Transfers a token using a signed permit message"
      },
      "permitTransferFrom(((address,uint256)[],uint256,uint256),(address,uint256)[],address,bytes)": {
        "notice": "Transfers multiple tokens using a signed permit message"
      },
      "permitWitnessTransferFrom(((address,uint256),uint256,uint256),(address,uint256),address,bytes32,string,bytes)": {
        "notice": "Transfers a token using a signed permit messageIncludes extra data provided by the caller to verify signature over"
      },
      "permitWitnessTransferFrom(((address,uint256)[],uint256,uint256),(address,uint256)[],address,bytes32,string,bytes)": {
        "notice": "Transfers multiple tokens using a signed permit messageIncludes extra data provided by the caller to verify signature over"
      },
      "transferFrom((address,address,uint160,address)[])": {
        "notice": "Transfer approved tokens in a batch"
      },
      "transferFrom(address,address,uint160,address)": {
        "notice": "Transfer approved tokens from one address to another"
      }
    },
    "notice": "Permit2 handles signature-based transfers in SignatureTransfer and allowance-based transfers in AllowanceTransfer.",
    "version": 1
  },
  "storageLayout": {
    "storage": [
      {
        "astId": 6433,
        "contract": "permit2/src/Permit2.sol:Permit2",
        "label": "nonceBitmap",
        "offset": 0,
        "slot": "0",
        "type": "t_mapping(t_address,t_mapping(t_uint256,t_uint256))"
      },
      {
        "astId": 5775,
        "contract": "permit2/src/Permit2.sol:Permit2",
        "label": "allowance",
        "offset": 0,
        "slot": "1",
        "type": "t_mapping(t_address,t_mapping(t_address,t_mapping(t_address,t_struct(PackedAllowance)6927_storage)))"
      }
    ],
    "types": {
      "t_address": {
        "encoding": "inplace",
        "label": "address",
        "numberOfBytes": "20"
      },
      "t_mapping(t_address,t_mapping(t_address,t_mapping(t_address,t_struct(PackedAllowance)6927_storage)))": {
        "encoding": "mapping",
        "key": "t_address",
        "label": "mapping(address => mapping(address => mapping(address => struct IAllowanceTransfer.PackedAllowance)))",
        "numberOfBytes": "32",
        "value": "t_mapping(t_address,t_mapping(t_address,t_struct(PackedAllowance)6927_storage))"
      },
      "t_mapping(t_address,t_mapping(t_address,t_struct(PackedAllowance)6927_storage))": {
        "encoding": "mapping",
        "key": "t_address",
        "label": "mapping(address => mapping(address => struct IAllowanceTransfer.PackedAllowance))",
        "numberOfBytes": "32",
        "value": "t_mapping(t_address,t_struct(PackedAllowance)6927_storage)"
      },
      "t_mapping(t_address,t_mapping(t_uint256,t_uint256))": {
        "encoding": "mapping",
        "key": "t_address",
        "label": "mapping(address => mapping(uint256 => uint256))",
        "numberOfBytes": "32",
        "value": "t_mapping(t_uint256,t_uint256)"
      },
      "t_mapping(t_address,t_struct(PackedAllowance)6927_storage)": {
        "encoding": "mapping",
        "key": "t_address",
        "label": "mapping(address => struct IAllowanceTransfer.PackedAllowance)",
        "numberOfBytes": "32",
        "value": "t_struct(PackedAllowance)6927_storage"
      },
      "t_mapping(t_uint256,t_uint256)": {
        "encoding": "mapping",
        "key": "t_uint256",
        "label": "mapping(uint256 => uint256)",
        "numberOfBytes": "32",
        "value": "t_uint256"
      },
      "t_struct(PackedAllowance)6927_storage": {
        "encoding": "inplace",
        "label": "struct IAllowanceTransfer.PackedAllowance",
        "members": [
          {
            "astId": 6922,
            "contract": "permit2/src/Permit2.sol:Permit2",
            "label": "amount",
            "offset": 0,
            "slot": "0",
            "type": "t_uint160"
          },
          {
            "astId": 6924,
            "contract": "permit2/src/Permit2.sol:Permit2",
            "label": "expiration",
            "offset": 20,
            "slot": "0",
            "type": "t_uint48"
          },
          {
            "astId": 6926,
            "contract": "permit2/src/Permit2.sol:Permit2",
            "label": "nonce",
            "offset": 26,
            "slot": "0",
            "type": "t_uint48"
          }
        ],
        "numberOfBytes": "32"
      },
      "t_uint160": {
        "encoding": "inplace",
        "label": "uint160",
        "numberOfBytes": "20"
      },
      "t_uint256": {
        "encoding": "inplace",
        "label": "uint256",
        "numberOfBytes": "32"
      },
      "t_uint48": {
        "encoding": "inplace",
        "label": "uint48",
        "numberOfBytes": "6"
      }
    }
  }
}